{
  "_format": "hh-sol-artifact-1",
  "contractName": "ChainBattles",
  "sourceName": "contracts/ChainBattles.sol",
  "abi": [
    {
      "inputs": [],
      "stateMutability": "nonpayable",
      "type": "constructor"
    },
    {
      "anonymous": false,
      "inputs": [
        {
          "indexed": true,
          "internalType": "address",
          "name": "owner",
          "type": "address"
        },
        {
          "indexed": true,
          "internalType": "address",
          "name": "approved",
          "type": "address"
        },
        {
          "indexed": true,
          "internalType": "uint256",
          "name": "tokenId",
          "type": "uint256"
        }
      ],
      "name": "Approval",
      "type": "event"
    },
    {
      "anonymous": false,
      "inputs": [
        {
          "indexed": true,
          "internalType": "address",
          "name": "owner",
          "type": "address"
        },
        {
          "indexed": true,
          "internalType": "address",
          "name": "operator",
          "type": "address"
        },
        {
          "indexed": false,
          "internalType": "bool",
          "name": "approved",
          "type": "bool"
        }
      ],
      "name": "ApprovalForAll",
      "type": "event"
    },
    {
      "anonymous": false,
      "inputs": [
        {
          "indexed": true,
          "internalType": "address",
          "name": "from",
          "type": "address"
        },
        {
          "indexed": true,
          "internalType": "address",
          "name": "to",
          "type": "address"
        },
        {
          "indexed": true,
          "internalType": "uint256",
          "name": "tokenId",
          "type": "uint256"
        }
      ],
      "name": "Transfer",
      "type": "event"
    },
    {
      "inputs": [
        {
          "internalType": "address",
          "name": "to",
          "type": "address"
        },
        {
          "internalType": "uint256",
          "name": "tokenId",
          "type": "uint256"
        }
      ],
      "name": "approve",
      "outputs": [],
      "stateMutability": "nonpayable",
      "type": "function"
    },
    {
      "inputs": [
        {
          "internalType": "address",
          "name": "owner",
          "type": "address"
        }
      ],
      "name": "balanceOf",
      "outputs": [
        {
          "internalType": "uint256",
          "name": "",
          "type": "uint256"
        }
      ],
      "stateMutability": "view",
      "type": "function"
    },
    {
      "inputs": [
        {
          "internalType": "uint256",
          "name": "tokenId",
          "type": "uint256"
        }
      ],
      "name": "generateCharacter",
      "outputs": [
        {
          "internalType": "string",
          "name": "",
          "type": "string"
        }
      ],
      "stateMutability": "nonpayable",
      "type": "function"
    },
    {
      "inputs": [
        {
          "internalType": "uint256",
          "name": "tokenId",
          "type": "uint256"
        }
      ],
      "name": "getApproved",
      "outputs": [
        {
          "internalType": "address",
          "name": "",
          "type": "address"
        }
      ],
      "stateMutability": "view",
      "type": "function"
    },
    {
      "inputs": [
        {
          "internalType": "uint256",
          "name": "tokenId",
          "type": "uint256"
        }
      ],
      "name": "getLevels",
      "outputs": [
        {
          "internalType": "string",
          "name": "",
          "type": "string"
        }
      ],
      "stateMutability": "view",
      "type": "function"
    },
    {
      "inputs": [
        {
          "internalType": "uint256",
          "name": "tokenId",
          "type": "uint256"
        }
      ],
      "name": "getTokenURI",
      "outputs": [
        {
          "internalType": "string",
          "name": "",
          "type": "string"
        }
      ],
      "stateMutability": "nonpayable",
      "type": "function"
    },
    {
      "inputs": [
        {
          "internalType": "address",
          "name": "owner",
          "type": "address"
        },
        {
          "internalType": "address",
          "name": "operator",
          "type": "address"
        }
      ],
      "name": "isApprovedForAll",
      "outputs": [
        {
          "internalType": "bool",
          "name": "",
          "type": "bool"
        }
      ],
      "stateMutability": "view",
      "type": "function"
    },
    {
      "inputs": [],
      "name": "mint",
      "outputs": [],
      "stateMutability": "nonpayable",
      "type": "function"
    },
    {
      "inputs": [],
      "name": "name",
      "outputs": [
        {
          "internalType": "string",
          "name": "",
          "type": "string"
        }
      ],
      "stateMutability": "view",
      "type": "function"
    },
    {
      "inputs": [
        {
          "internalType": "uint256",
          "name": "tokenId",
          "type": "uint256"
        }
      ],
      "name": "ownerOf",
      "outputs": [
        {
          "internalType": "address",
          "name": "",
          "type": "address"
        }
      ],
      "stateMutability": "view",
      "type": "function"
    },
    {
      "inputs": [
        {
          "internalType": "address",
          "name": "from",
          "type": "address"
        },
        {
          "internalType": "address",
          "name": "to",
          "type": "address"
        },
        {
          "internalType": "uint256",
          "name": "tokenId",
          "type": "uint256"
        }
      ],
      "name": "safeTransferFrom",
      "outputs": [],
      "stateMutability": "nonpayable",
      "type": "function"
    },
    {
      "inputs": [
        {
          "internalType": "address",
          "name": "from",
          "type": "address"
        },
        {
          "internalType": "address",
          "name": "to",
          "type": "address"
        },
        {
          "internalType": "uint256",
          "name": "tokenId",
          "type": "uint256"
        },
        {
          "internalType": "bytes",
          "name": "_data",
          "type": "bytes"
        }
      ],
      "name": "safeTransferFrom",
      "outputs": [],
      "stateMutability": "nonpayable",
      "type": "function"
    },
    {
      "inputs": [
        {
          "internalType": "address",
          "name": "operator",
          "type": "address"
        },
        {
          "internalType": "bool",
          "name": "approved",
          "type": "bool"
        }
      ],
      "name": "setApprovalForAll",
      "outputs": [],
      "stateMutability": "nonpayable",
      "type": "function"
    },
    {
      "inputs": [
        {
          "internalType": "bytes4",
          "name": "interfaceId",
          "type": "bytes4"
        }
      ],
      "name": "supportsInterface",
      "outputs": [
        {
          "internalType": "bool",
          "name": "",
          "type": "bool"
        }
      ],
      "stateMutability": "view",
      "type": "function"
    },
    {
      "inputs": [],
      "name": "symbol",
      "outputs": [
        {
          "internalType": "string",
          "name": "",
          "type": "string"
        }
      ],
      "stateMutability": "view",
      "type": "function"
    },
    {
      "inputs": [
        {
          "internalType": "uint256",
          "name": "",
          "type": "uint256"
        }
      ],
      "name": "tokenIdtoLevels",
      "outputs": [
        {
          "internalType": "uint256",
          "name": "",
          "type": "uint256"
        }
      ],
      "stateMutability": "view",
      "type": "function"
    },
    {
      "inputs": [
        {
          "internalType": "uint256",
          "name": "tokenId",
          "type": "uint256"
        }
      ],
      "name": "tokenURI",
      "outputs": [
        {
          "internalType": "string",
          "name": "",
          "type": "string"
        }
      ],
      "stateMutability": "view",
      "type": "function"
    },
    {
      "inputs": [
        {
          "internalType": "uint256",
          "name": "tokenId",
          "type": "uint256"
        }
      ],
      "name": "train",
      "outputs": [],
      "stateMutability": "nonpayable",
      "type": "function"
    },
    {
      "inputs": [
        {
          "internalType": "address",
          "name": "from",
          "type": "address"
        },
        {
          "internalType": "address",
          "name": "to",
          "type": "address"
        },
        {
          "internalType": "uint256",
          "name": "tokenId",
          "type": "uint256"
        }
      ],
      "name": "transferFrom",
      "outputs": [],
      "stateMutability": "nonpayable",
      "type": "function"
    }
  ],
  "bytecode": "0x60806040523480156200001157600080fd5b506040518060400160405280600c81526020017f436861696e426174746c657300000000000000000000000000000000000000008152506040518060400160405280600581526020017f4342544c53000000000000000000000000000000000000000000000000000000815250816000908051906020019062000096929190620000b8565b508060019080519060200190620000af929190620000b8565b505050620001cd565b828054620000c69062000197565b90600052602060002090601f016020900481019282620000ea576000855562000136565b82601f106200010557805160ff191683800117855562000136565b8280016001018555821562000136579182015b828111156200013557825182559160200191906001019062000118565b5b50905062000145919062000149565b5090565b5b80821115620001645760008160009055506001016200014a565b5090565b7f4e487b7100000000000000000000000000000000000000000000000000000000600052602260045260246000fd5b60006002820490506001821680620001b057607f821691505b60208210811415620001c757620001c662000168565b5b50919050565b61398c80620001dd6000396000f3fe608060405234801561001057600080fd5b50600436106101215760003560e01c806342842e0e116100ad578063b88d4fde11610071578063b88d4fde14610318578063c87b56dd14610334578063ce716e9514610364578063e985e9c514610394578063f43785f9146103c457610121565b806342842e0e146102625780636352211e1461027e57806370a08231146102ae57806395d89b41146102de578063a22cb465146102fc57610121565b80630daefed5116100f45780630daefed5146101c05780631249c58b146101f057806323b872dd146101fa578063368004ed146102165780633bb3a24d1461023257610121565b806301ffc9a71461012657806306fdde0314610156578063081812fc14610174578063095ea7b3146101a4575b600080fd5b610140600480360381019061013b9190611e1f565b6103f4565b60405161014d9190611e67565b60405180910390f35b61015e6104d6565b60405161016b9190611f1b565b60405180910390f35b61018e60048036038101906101899190611f73565b610568565b60405161019b9190611fe1565b60405180910390f35b6101be60048036038101906101b99190612028565b6105ed565b005b6101da60048036038101906101d59190611f73565b610705565b6040516101e79190611f1b565b60405180910390f35b6101f8610763565b005b610214600480360381019061020f9190612068565b6107b3565b005b610230600480360381019061022b9190611f73565b610813565b005b61024c60048036038101906102479190611f73565b610923565b6040516102599190611f1b565b60405180910390f35b61027c60048036038101906102779190612068565b61098b565b005b61029860048036038101906102939190611f73565b6109ab565b6040516102a59190611fe1565b60405180910390f35b6102c860048036038101906102c391906120bb565b610a5d565b6040516102d591906120f7565b60405180910390f35b6102e6610b15565b6040516102f39190611f1b565b60405180910390f35b6103166004803603810190610311919061213e565b610ba7565b005b610332600480360381019061032d91906122b3565b610bbd565b005b61034e60048036038101906103499190611f73565b610c1f565b60405161035b9190611f1b565b60405180910390f35b61037e60048036038101906103799190611f73565b610d71565b60405161038b91906120f7565b60405180910390f35b6103ae60048036038101906103a99190612336565b610d89565b6040516103bb9190611e67565b60405180910390f35b6103de60048036038101906103d99190611f73565b610e1d565b6040516103eb9190611f1b565b60405180910390f35b60007f80ac58cd000000000000000000000000000000000000000000000000000000007bffffffffffffffffffffffffffffffffffffffffffffffffffffffff1916827bffffffffffffffffffffffffffffffffffffffffffffffffffffffff191614806104bf57507f5b5e139f000000000000000000000000000000000000000000000000000000007bffffffffffffffffffffffffffffffffffffffffffffffffffffffff1916827bffffffffffffffffffffffffffffffffffffffffffffffffffffffff1916145b806104cf57506104ce82610e48565b5b9050919050565b6060600080546104e5906123a5565b80601f0160208091040260200160405190810160405280929190818152602001828054610511906123a5565b801561055e5780601f106105335761010080835404028352916020019161055e565b820191906000526020600020905b81548152906001019060200180831161054157829003601f168201915b5050505050905090565b600061057382610eb2565b6105b2576040517f08c379a00000000000000000000000000000000000000000000000000000000081526004016105a990612449565b60405180910390fd5b6004600083815260200190815260200160002060009054906101000a900473ffffffffffffffffffffffffffffffffffffffff169050919050565b60006105f8826109ab565b90508073ffffffffffffffffffffffffffffffffffffffff168373ffffffffffffffffffffffffffffffffffffffff161415610669576040517f08c379a0000000000000000000000000000000000000000000000000000000008152600401610660906124db565b60405180910390fd5b8073ffffffffffffffffffffffffffffffffffffffff16610688610f1e565b73ffffffffffffffffffffffffffffffffffffffff1614806106b757506106b6816106b1610f1e565b610d89565b5b6106f6576040517f08c379a00000000000000000000000000000000000000000000000000000000081526004016106ed9061256d565b60405180910390fd5b6107008383610f26565b505050565b6060600061071283610e1d565b60405160200161072291906129f1565b604051602081830303815290604052905061073c81610fdf565b60405160200161074c9190612ac2565b604051602081830303815290604052915050919050565b61076d6007611143565b60006107796007611159565b90506107853382611167565b600060086000838152602001908152602001600020819055506107b0816107ab83610923565b611185565b50565b6107c46107be610f1e565b826111f9565b610803576040517f08c379a00000000000000000000000000000000000000000000000000000000081526004016107fa90612b56565b60405180910390fd5b61080e8383836112d7565b505050565b61081c81610eb2565b61085b576040517f08c379a000000000000000000000000000000000000000000000000000000000815260040161085290612bc2565b60405180910390fd5b3373ffffffffffffffffffffffffffffffffffffffff1661087b826109ab565b73ffffffffffffffffffffffffffffffffffffffff16146108d1576040517f08c379a00000000000000000000000000000000000000000000000000000000081526004016108c890612c54565b60405180910390fd5b6000600860008381526020019081526020016000205490506001816108f69190612ca3565b600860008481526020019081526020016000208190555061091f8261091a84610923565b611185565b5050565b606060006109308361153e565b61093984610705565b60405160200161094a929190612f33565b604051602081830303815290604052905061096481610fdf565b6040516020016109749190612ff0565b604051602081830303815290604052915050919050565b6109a683838360405180602001604052806000815250610bbd565b505050565b6000806002600084815260200190815260200160002060009054906101000a900473ffffffffffffffffffffffffffffffffffffffff169050600073ffffffffffffffffffffffffffffffffffffffff168173ffffffffffffffffffffffffffffffffffffffff161415610a54576040517f08c379a0000000000000000000000000000000000000000000000000000000008152600401610a4b90613084565b60405180910390fd5b80915050919050565b60008073ffffffffffffffffffffffffffffffffffffffff168273ffffffffffffffffffffffffffffffffffffffff161415610ace576040517f08c379a0000000000000000000000000000000000000000000000000000000008152600401610ac590613116565b60405180910390fd5b600360008373ffffffffffffffffffffffffffffffffffffffff1673ffffffffffffffffffffffffffffffffffffffff168152602001908152602001600020549050919050565b606060018054610b24906123a5565b80601f0160208091040260200160405190810160405280929190818152602001828054610b50906123a5565b8015610b9d5780601f10610b7257610100808354040283529160200191610b9d565b820191906000526020600020905b815481529060010190602001808311610b8057829003601f168201915b5050505050905090565b610bb9610bb2610f1e565b838361169f565b5050565b610bce610bc8610f1e565b836111f9565b610c0d576040517f08c379a0000000000000000000000000000000000000000000000000000000008152600401610c0490612b56565b60405180910390fd5b610c198484848461180c565b50505050565b6060610c2a82610eb2565b610c69576040517f08c379a0000000000000000000000000000000000000000000000000000000008152600401610c60906131a8565b60405180910390fd5b6000600660008481526020019081526020016000208054610c89906123a5565b80601f0160208091040260200160405190810160405280929190818152602001828054610cb5906123a5565b8015610d025780601f10610cd757610100808354040283529160200191610d02565b820191906000526020600020905b815481529060010190602001808311610ce557829003601f168201915b505050505090506000610d13611868565b9050600081511415610d29578192505050610d6c565b600082511115610d5e578082604051602001610d469291906131c8565b60405160208183030381529060405292505050610d6c565b610d678461187f565b925050505b919050565b60086020528060005260406000206000915090505481565b6000600560008473ffffffffffffffffffffffffffffffffffffffff1673ffffffffffffffffffffffffffffffffffffffff16815260200190815260200160002060008373ffffffffffffffffffffffffffffffffffffffff1673ffffffffffffffffffffffffffffffffffffffff16815260200190815260200160002060009054906101000a900460ff16905092915050565b6060600060086000848152602001908152602001600020549050610e408161153e565b915050919050565b60007f01ffc9a7000000000000000000000000000000000000000000000000000000007bffffffffffffffffffffffffffffffffffffffffffffffffffffffff1916827bffffffffffffffffffffffffffffffffffffffffffffffffffffffff1916149050919050565b60008073ffffffffffffffffffffffffffffffffffffffff166002600084815260200190815260200160002060009054906101000a900473ffffffffffffffffffffffffffffffffffffffff1673ffffffffffffffffffffffffffffffffffffffff1614159050919050565b600033905090565b816004600083815260200190815260200160002060006101000a81548173ffffffffffffffffffffffffffffffffffffffff021916908373ffffffffffffffffffffffffffffffffffffffff160217905550808273ffffffffffffffffffffffffffffffffffffffff16610f99836109ab565b73ffffffffffffffffffffffffffffffffffffffff167f8c5be1e5ebec7d5bd14f71427d1e84f3dd0314c0f7b2291e5b200ac8c7c3b92560405160405180910390a45050565b60606000825114156110025760405180602001604052806000815250905061113e565b600060405180606001604052806040815260200161391760409139905060006003600285516110319190612ca3565b61103b919061321b565b6004611047919061324c565b67ffffffffffffffff8111156110605761105f612188565b5b6040519080825280601f01601f1916602001820160405280156110925781602001600182028036833780820191505090505b509050600182016020820185865187015b808210156110fe576003820191508151603f8160121c168501518453600184019350603f81600c1c168501518453600184019350603f8160061c168501518453600184019350603f81168501518453600184019350506110a3565b505060038651066001811461111a576002811461112d57611135565b603d6001830353603d6002830353611135565b603d60018303535b50505080925050505b919050565b6001816000016000828254019250508190555050565b600081600001549050919050565b611181828260405180602001604052806000815250611926565b5050565b61118e82610eb2565b6111cd576040517f08c379a00000000000000000000000000000000000000000000000000000000081526004016111c490613318565b60405180910390fd5b806006600084815260200190815260200160002090805190602001906111f4929190611d10565b505050565b600061120482610eb2565b611243576040517f08c379a000000000000000000000000000000000000000000000000000000000815260040161123a906133aa565b60405180910390fd5b600061124e836109ab565b90508073ffffffffffffffffffffffffffffffffffffffff168473ffffffffffffffffffffffffffffffffffffffff161480611290575061128f8185610d89565b5b806112ce57508373ffffffffffffffffffffffffffffffffffffffff166112b684610568565b73ffffffffffffffffffffffffffffffffffffffff16145b91505092915050565b8273ffffffffffffffffffffffffffffffffffffffff166112f7826109ab565b73ffffffffffffffffffffffffffffffffffffffff161461134d576040517f08c379a00000000000000000000000000000000000000000000000000000000081526004016113449061343c565b60405180910390fd5b600073ffffffffffffffffffffffffffffffffffffffff168273ffffffffffffffffffffffffffffffffffffffff1614156113bd576040517f08c379a00000000000000000000000000000000000000000000000000000000081526004016113b4906134ce565b60405180910390fd5b6113c8838383611981565b6113d3600082610f26565b6001600360008573ffffffffffffffffffffffffffffffffffffffff1673ffffffffffffffffffffffffffffffffffffffff168152602001908152602001600020600082825461142391906134ee565b925050819055506001600360008473ffffffffffffffffffffffffffffffffffffffff1673ffffffffffffffffffffffffffffffffffffffff168152602001908152602001600020600082825461147a9190612ca3565b92505081905550816002600083815260200190815260200160002060006101000a81548173ffffffffffffffffffffffffffffffffffffffff021916908373ffffffffffffffffffffffffffffffffffffffff160217905550808273ffffffffffffffffffffffffffffffffffffffff168473ffffffffffffffffffffffffffffffffffffffff167fddf252ad1be2c89b69c2b068fc378daa952ba7f163c4a11628f55a4df523b3ef60405160405180910390a4611539838383611986565b505050565b60606000821415611586576040518060400160405280600181526020017f3000000000000000000000000000000000000000000000000000000000000000815250905061169a565b600082905060005b600082146115b85780806115a190613522565b915050600a826115b1919061321b565b915061158e565b60008167ffffffffffffffff8111156115d4576115d3612188565b5b6040519080825280601f01601f1916602001820160405280156116065781602001600182028036833780820191505090505b5090505b600085146116935760018261161f91906134ee565b9150600a8561162e919061356b565b603061163a9190612ca3565b60f81b8183815181106116505761164f61359c565b5b60200101907effffffffffffffffffffffffffffffffffffffffffffffffffffffffffffff1916908160001a905350600a8561168c919061321b565b945061160a565b8093505050505b919050565b8173ffffffffffffffffffffffffffffffffffffffff168373ffffffffffffffffffffffffffffffffffffffff16141561170e576040517f08c379a000000000000000000000000000000000000000000000000000000000815260040161170590613617565b60405180910390fd5b80600560008573ffffffffffffffffffffffffffffffffffffffff1673ffffffffffffffffffffffffffffffffffffffff16815260200190815260200160002060008473ffffffffffffffffffffffffffffffffffffffff1673ffffffffffffffffffffffffffffffffffffffff16815260200190815260200160002060006101000a81548160ff0219169083151502179055508173ffffffffffffffffffffffffffffffffffffffff168373ffffffffffffffffffffffffffffffffffffffff167f17307eab39ab6107e8899845ad3d59bd9653f200f220920489ca2b5937696c31836040516117ff9190611e67565b60405180910390a3505050565b6118178484846112d7565b6118238484848461198b565b611862576040517f08c379a0000000000000000000000000000000000000000000000000000000008152600401611859906136a9565b60405180910390fd5b50505050565b606060405180602001604052806000815250905090565b606061188a82610eb2565b6118c9576040517f08c379a00000000000000000000000000000000000000000000000000000000081526004016118c09061373b565b60405180910390fd5b60006118d3611868565b905060008151116118f3576040518060200160405280600081525061191e565b806118fd8461153e565b60405160200161190e9291906131c8565b6040516020818303038152906040525b915050919050565b6119308383611b13565b61193d600084848461198b565b61197c576040517f08c379a0000000000000000000000000000000000000000000000000000000008152600401611973906136a9565b60405180910390fd5b505050565b505050565b505050565b60006119ac8473ffffffffffffffffffffffffffffffffffffffff16611ced565b15611b06578373ffffffffffffffffffffffffffffffffffffffff1663150b7a026119d5610f1e565b8786866040518563ffffffff1660e01b81526004016119f794939291906137b0565b6020604051808303816000875af1925050508015611a3357506040513d601f19601f82011682018060405250810190611a309190613811565b60015b611ab6573d8060008114611a63576040519150601f19603f3d011682016040523d82523d6000602084013e611a68565b606091505b50600081511415611aae576040517f08c379a0000000000000000000000000000000000000000000000000000000008152600401611aa5906136a9565b60405180910390fd5b805181602001fd5b63150b7a0260e01b7bffffffffffffffffffffffffffffffffffffffffffffffffffffffff1916817bffffffffffffffffffffffffffffffffffffffffffffffffffffffff191614915050611b0b565b600190505b949350505050565b600073ffffffffffffffffffffffffffffffffffffffff168273ffffffffffffffffffffffffffffffffffffffff161415611b83576040517f08c379a0000000000000000000000000000000000000000000000000000000008152600401611b7a9061388a565b60405180910390fd5b611b8c81610eb2565b15611bcc576040517f08c379a0000000000000000000000000000000000000000000000000000000008152600401611bc3906138f6565b60405180910390fd5b611bd860008383611981565b6001600360008473ffffffffffffffffffffffffffffffffffffffff1673ffffffffffffffffffffffffffffffffffffffff1681526020019081526020016000206000828254611c289190612ca3565b92505081905550816002600083815260200190815260200160002060006101000a81548173ffffffffffffffffffffffffffffffffffffffff021916908373ffffffffffffffffffffffffffffffffffffffff160217905550808273ffffffffffffffffffffffffffffffffffffffff16600073ffffffffffffffffffffffffffffffffffffffff167fddf252ad1be2c89b69c2b068fc378daa952ba7f163c4a11628f55a4df523b3ef60405160405180910390a4611ce960008383611986565b5050565b6000808273ffffffffffffffffffffffffffffffffffffffff163b119050919050565b828054611d1c906123a5565b90600052602060002090601f016020900481019282611d3e5760008555611d85565b82601f10611d5757805160ff1916838001178555611d85565b82800160010185558215611d85579182015b82811115611d84578251825591602001919060010190611d69565b5b509050611d929190611d96565b5090565b5b80821115611daf576000816000905550600101611d97565b5090565b6000604051905090565b600080fd5b600080fd5b60007fffffffff0000000000000000000000000000000000000000000000000000000082169050919050565b611dfc81611dc7565b8114611e0757600080fd5b50565b600081359050611e1981611df3565b92915050565b600060208284031215611e3557611e34611dbd565b5b6000611e4384828501611e0a565b91505092915050565b60008115159050919050565b611e6181611e4c565b82525050565b6000602082019050611e7c6000830184611e58565b92915050565b600081519050919050565b600082825260208201905092915050565b60005b83811015611ebc578082015181840152602081019050611ea1565b83811115611ecb576000848401525b50505050565b6000601f19601f8301169050919050565b6000611eed82611e82565b611ef78185611e8d565b9350611f07818560208601611e9e565b611f1081611ed1565b840191505092915050565b60006020820190508181036000830152611f358184611ee2565b905092915050565b6000819050919050565b611f5081611f3d565b8114611f5b57600080fd5b50565b600081359050611f6d81611f47565b92915050565b600060208284031215611f8957611f88611dbd565b5b6000611f9784828501611f5e565b91505092915050565b600073ffffffffffffffffffffffffffffffffffffffff82169050919050565b6000611fcb82611fa0565b9050919050565b611fdb81611fc0565b82525050565b6000602082019050611ff66000830184611fd2565b92915050565b61200581611fc0565b811461201057600080fd5b50565b60008135905061202281611ffc565b92915050565b6000806040838503121561203f5761203e611dbd565b5b600061204d85828601612013565b925050602061205e85828601611f5e565b9150509250929050565b60008060006060848603121561208157612080611dbd565b5b600061208f86828701612013565b93505060206120a086828701612013565b92505060406120b186828701611f5e565b9150509250925092565b6000602082840312156120d1576120d0611dbd565b5b60006120df84828501612013565b91505092915050565b6120f181611f3d565b82525050565b600060208201905061210c60008301846120e8565b92915050565b61211b81611e4c565b811461212657600080fd5b50565b60008135905061213881612112565b92915050565b6000806040838503121561215557612154611dbd565b5b600061216385828601612013565b925050602061217485828601612129565b9150509250929050565b600080fd5b600080fd5b7f4e487b7100000000000000000000000000000000000000000000000000000000600052604160045260246000fd5b6121c082611ed1565b810181811067ffffffffffffffff821117156121df576121de612188565b5b80604052505050565b60006121f2611db3565b90506121fe82826121b7565b919050565b600067ffffffffffffffff82111561221e5761221d612188565b5b61222782611ed1565b9050602081019050919050565b82818337600083830152505050565b600061225661225184612203565b6121e8565b90508281526020810184848401111561227257612271612183565b5b61227d848285612234565b509392505050565b600082601f83011261229a5761229961217e565b5b81356122aa848260208601612243565b91505092915050565b600080600080608085870312156122cd576122cc611dbd565b5b60006122db87828801612013565b94505060206122ec87828801612013565b93505060406122fd87828801611f5e565b925050606085013567ffffffffffffffff81111561231e5761231d611dc2565b5b61232a87828801612285565b91505092959194509250565b6000806040838503121561234d5761234c611dbd565b5b600061235b85828601612013565b925050602061236c85828601612013565b9150509250929050565b7f4e487b7100000000000000000000000000000000000000000000000000000000600052602260045260246000fd5b600060028204905060018216806123bd57607f821691505b602082108114156123d1576123d0612376565b5b50919050565b7f4552433732313a20617070726f76656420717565727920666f72206e6f6e657860008201527f697374656e7420746f6b656e0000000000000000000000000000000000000000602082015250565b6000612433602c83611e8d565b915061243e826123d7565b604082019050919050565b6000602082019050818103600083015261246281612426565b9050919050565b7f4552433732313a20617070726f76616c20746f2063757272656e74206f776e6560008201527f7200000000000000000000000000000000000000000000000000000000000000602082015250565b60006124c5602183611e8d565b91506124d082612469565b604082019050919050565b600060208201905081810360008301526124f4816124b8565b9050919050565b7f4552433732313a20617070726f76652063616c6c6572206973206e6f74206f7760008201527f6e6572206e6f7220617070726f76656420666f7220616c6c0000000000000000602082015250565b6000612557603883611e8d565b9150612562826124fb565b604082019050919050565b600060208201905081810360008301526125868161254a565b9050919050565b600081905092915050565b7f3c73766720786d6c6e733d22687474703a2f2f7777772e77332e6f72672f323060008201527f30302f73766722207072657365727665417370656374526174696f3d22784d6960208201527f6e594d696e206d656574222076696577426f783d22302030203335302033353060408201527f223e000000000000000000000000000000000000000000000000000000000000606082015250565b600061264060628361258d565b915061264b82612598565b606282019050919050565b7f3c7374796c653e2e62617365207b2066696c6c3a2077686974653b20666f6e7460008201527f2d66616d696c793a2073657269663b20666f6e742d73697a653a20313470783b60208201527f207d3c2f7374796c653e00000000000000000000000000000000000000000000604082015250565b60006126d8604a8361258d565b91506126e382612656565b604a82019050919050565b7f3c726563742077696474683d223130302522206865696768743d22313030252260008201527f2066696c6c3d22626c61636b22202f3e00000000000000000000000000000000602082015250565b600061274a60308361258d565b9150612755826126ee565b603082019050919050565b7f3c7465787420783d223530252220793d223430252220636c6173733d2262617360008201527f652220646f6d696e616e742d626173656c696e653d226d6964646c652220746560208201527f78742d616e63686f723d226d6964646c65223e00000000000000000000000000604082015250565b60006127e260538361258d565b91506127ed82612760565b605382019050919050565b7f57617272696f7200000000000000000000000000000000000000000000000000600082015250565b600061282e60078361258d565b9150612839826127f8565b600782019050919050565b7f3c2f746578743e00000000000000000000000000000000000000000000000000600082015250565b600061287a60078361258d565b915061288582612844565b600782019050919050565b7f3c7465787420783d223530252220793d223530252220636c6173733d2262617360008201527f652220646f6d696e616e742d626173656c696e653d226d6964646c652220746560208201527f78742d616e63686f723d226d6964646c65223e00000000000000000000000000604082015250565b600061291260538361258d565b915061291d82612890565b605382019050919050565b7f4c6576656c733a20000000000000000000000000000000000000000000000000600082015250565b600061295e60088361258d565b915061296982612928565b600882019050919050565b600061297f82611e82565b612989818561258d565b9350612999818560208601611e9e565b80840191505092915050565b7f3c2f7376673e0000000000000000000000000000000000000000000000000000600082015250565b60006129db60068361258d565b91506129e6826129a5565b600682019050919050565b60006129fc82612633565b9150612a07826126cb565b9150612a128261273d565b9150612a1d826127d5565b9150612a2882612821565b9150612a338261286d565b9150612a3e82612905565b9150612a4982612951565b9150612a558284612974565b9150612a608261286d565b9150612a6b826129ce565b915081905092915050565b7f646174613a696d6167652f7376672b786d6c3b6261736536342c000000000000600082015250565b6000612aac601a8361258d565b9150612ab782612a76565b601a82019050919050565b6000612acd82612a9f565b9150612ad98284612974565b915081905092915050565b7f4552433732313a207472616e736665722063616c6c6572206973206e6f74206f60008201527f776e6572206e6f7220617070726f766564000000000000000000000000000000602082015250565b6000612b40603183611e8d565b9150612b4b82612ae4565b604082019050919050565b60006020820190508181036000830152612b6f81612b33565b9050919050565b7f506c656173652075736520746865206578697374696e6720746f6b656e496400600082015250565b6000612bac601f83611e8d565b9150612bb782612b76565b602082019050919050565b60006020820190508181036000830152612bdb81612b9f565b9050919050565b7f596f75206d757374206f776e2074686973204e465420746f20747261696e206960008201527f7421000000000000000000000000000000000000000000000000000000000000602082015250565b6000612c3e602283611e8d565b9150612c4982612be2565b604082019050919050565b60006020820190508181036000830152612c6d81612c31565b9050919050565b7f4e487b7100000000000000000000000000000000000000000000000000000000600052601160045260246000fd5b6000612cae82611f3d565b9150612cb983611f3d565b9250827fffffffffffffffffffffffffffffffffffffffffffffffffffffffffffffffff03821115612cee57612ced612c74565b5b828201905092915050565b7f7b00000000000000000000000000000000000000000000000000000000000000600082015250565b6000612d2f60018361258d565b9150612d3a82612cf9565b600182019050919050565b7f226e616d65223a2022436861696e20426174746c657320230000000000000000600082015250565b6000612d7b60188361258d565b9150612d8682612d45565b601882019050919050565b7f222c000000000000000000000000000000000000000000000000000000000000600082015250565b6000612dc760028361258d565b9150612dd282612d91565b600282019050919050565b7f226465736372697074696f6e223a2022426174746c6573206f6e20636861696e60008201527f222c000000000000000000000000000000000000000000000000000000000000602082015250565b6000612e3960228361258d565b9150612e4482612ddd565b602282019050919050565b7f22696d616765223a202200000000000000000000000000000000000000000000600082015250565b6000612e85600a8361258d565b9150612e9082612e4f565b600a82019050919050565b7f2200000000000000000000000000000000000000000000000000000000000000600082015250565b6000612ed160018361258d565b9150612edc82612e9b565b600182019050919050565b7f7d00000000000000000000000000000000000000000000000000000000000000600082015250565b6000612f1d60018361258d565b9150612f2882612ee7565b600182019050919050565b6000612f3e82612d22565b9150612f4982612d6e565b9150612f558285612974565b9150612f6082612dba565b9150612f6b82612e2c565b9150612f7682612e78565b9150612f828284612974565b9150612f8d82612ec4565b9150612f9882612f10565b91508190509392505050565b7f646174613a6170706c69636174696f6e2f6a736f6e3b6261736536342c000000600082015250565b6000612fda601d8361258d565b9150612fe582612fa4565b601d82019050919050565b6000612ffb82612fcd565b91506130078284612974565b915081905092915050565b7f4552433732313a206f776e657220717565727920666f72206e6f6e657869737460008201527f656e7420746f6b656e0000000000000000000000000000000000000000000000602082015250565b600061306e602983611e8d565b915061307982613012565b604082019050919050565b6000602082019050818103600083015261309d81613061565b9050919050565b7f4552433732313a2062616c616e636520717565727920666f7220746865207a6560008201527f726f206164647265737300000000000000000000000000000000000000000000602082015250565b6000613100602a83611e8d565b915061310b826130a4565b604082019050919050565b6000602082019050818103600083015261312f816130f3565b9050919050565b7f45524337323155524953746f726167653a2055524920717565727920666f722060008201527f6e6f6e6578697374656e7420746f6b656e000000000000000000000000000000602082015250565b6000613192603183611e8d565b915061319d82613136565b604082019050919050565b600060208201905081810360008301526131c181613185565b9050919050565b60006131d48285612974565b91506131e08284612974565b91508190509392505050565b7f4e487b7100000000000000000000000000000000000000000000000000000000600052601260045260246000fd5b600061322682611f3d565b915061323183611f3d565b925082613241576132406131ec565b5b828204905092915050565b600061325782611f3d565b915061326283611f3d565b9250817fffffffffffffffffffffffffffffffffffffffffffffffffffffffffffffffff048311821515161561329b5761329a612c74565b5b828202905092915050565b7f45524337323155524953746f726167653a2055524920736574206f66206e6f6e60008201527f6578697374656e7420746f6b656e000000000000000000000000000000000000602082015250565b6000613302602e83611e8d565b915061330d826132a6565b604082019050919050565b60006020820190508181036000830152613331816132f5565b9050919050565b7f4552433732313a206f70657261746f7220717565727920666f72206e6f6e657860008201527f697374656e7420746f6b656e0000000000000000000000000000000000000000602082015250565b6000613394602c83611e8d565b915061339f82613338565b604082019050919050565b600060208201905081810360008301526133c381613387565b9050919050565b7f4552433732313a207472616e736665722066726f6d20696e636f72726563742060008201527f6f776e6572000000000000000000000000000000000000000000000000000000602082015250565b6000613426602583611e8d565b9150613431826133ca565b604082019050919050565b6000602082019050818103600083015261345581613419565b9050919050565b7f4552433732313a207472616e7366657220746f20746865207a65726f2061646460008201527f7265737300000000000000000000000000000000000000000000000000000000602082015250565b60006134b8602483611e8d565b91506134c38261345c565b604082019050919050565b600060208201905081810360008301526134e7816134ab565b9050919050565b60006134f982611f3d565b915061350483611f3d565b92508282101561351757613516612c74565b5b828203905092915050565b600061352d82611f3d565b91507fffffffffffffffffffffffffffffffffffffffffffffffffffffffffffffffff8214156135605761355f612c74565b5b600182019050919050565b600061357682611f3d565b915061358183611f3d565b925082613591576135906131ec565b5b828206905092915050565b7f4e487b7100000000000000000000000000000000000000000000000000000000600052603260045260246000fd5b7f4552433732313a20617070726f766520746f2063616c6c657200000000000000600082015250565b6000613601601983611e8d565b915061360c826135cb565b602082019050919050565b60006020820190508181036000830152613630816135f4565b9050919050565b7f4552433732313a207472616e7366657220746f206e6f6e20455243373231526560008201527f63656976657220696d706c656d656e7465720000000000000000000000000000602082015250565b6000613693603283611e8d565b915061369e82613637565b604082019050919050565b600060208201905081810360008301526136c281613686565b9050919050565b7f4552433732314d657461646174613a2055524920717565727920666f72206e6f60008201527f6e6578697374656e7420746f6b656e0000000000000000000000000000000000602082015250565b6000613725602f83611e8d565b9150613730826136c9565b604082019050919050565b6000602082019050818103600083015261375481613718565b9050919050565b600081519050919050565b600082825260208201905092915050565b60006137828261375b565b61378c8185613766565b935061379c818560208601611e9e565b6137a581611ed1565b840191505092915050565b60006080820190506137c56000830187611fd2565b6137d26020830186611fd2565b6137df60408301856120e8565b81810360608301526137f18184613777565b905095945050505050565b60008151905061380b81611df3565b92915050565b60006020828403121561382757613826611dbd565b5b6000613835848285016137fc565b91505092915050565b7f4552433732313a206d696e7420746f20746865207a65726f2061646472657373600082015250565b6000613874602083611e8d565b915061387f8261383e565b602082019050919050565b600060208201905081810360008301526138a381613867565b9050919050565b7f4552433732313a20746f6b656e20616c7265616479206d696e74656400000000600082015250565b60006138e0601c83611e8d565b91506138eb826138aa565b602082019050919050565b6000602082019050818103600083015261390f816138d3565b905091905056fe4142434445464748494a4b4c4d4e4f505152535455565758595a6162636465666768696a6b6c6d6e6f707172737475767778797a303132333435363738392b2fa264697066735822122027ed972950a869cd93e090b4f5e94a171cb0437e040796a5f74cb473bd78078764736f6c634300080a0033",
  "linkReferences": {},
  "deployedLinkReferences": {}
}